{
  "_format": "hh-sol-artifact-1",
  "contractName": "CubeMaster",
  "sourceName": "contracts/CubeMaster.sol",
  "abi": [
    {
      "inputs": [],
      "stateMutability": "nonpayable",
      "type": "constructor"
    },
    {
      "anonymous": false,
      "inputs": [
        {
          "indexed": true,
          "internalType": "address",
          "name": "player",
          "type": "address"
        },
        {
          "indexed": false,
          "internalType": "string",
          "name": "action",
          "type": "string"
        },
        {
          "indexed": false,
          "internalType": "uint256",
          "name": "amount",
          "type": "uint256"
        }
      ],
      "name": "ActionPaid",
      "type": "event"
    },
    {
      "inputs": [],
      "name": "FEE",
      "outputs": [
        {
          "internalType": "uint256",
          "name": "",
          "type": "uint256"
        }
      ],
      "stateMutability": "view",
      "type": "function"
    },
    {
      "inputs": [],
      "name": "completeLevel",
      "outputs": [],
      "stateMutability": "payable",
      "type": "function"
    },
    {
      "inputs": [],
      "name": "owner",
      "outputs": [
        {
          "internalType": "address payable",
          "name": "",
          "type": "address"
        }
      ],
      "stateMutability": "view",
      "type": "function"
    },
    {
      "inputs": [],
      "name": "playLevel",
      "outputs": [],
      "stateMutability": "payable",
      "type": "function"
    },
    {
      "inputs": [],
      "name": "resetLevel",
      "outputs": [],
      "stateMutability": "payable",
      "type": "function"
    }
  ],
  "bytecode": "0x6080604052348015600f57600080fd5b50336000806101000a81548173ffffffffffffffffffffffffffffffffffffffff021916908373ffffffffffffffffffffffffffffffffffffffff1602179055506106c88061005f6000396000f3fe60806040526004361061004a5760003560e01c806305c7fe711461004f5780633ff7bdcb146100595780638da5cb5b1461006357806393c898941461008e578063c57981b514610098575b600080fd5b6100576100c3565b005b6100616101c3565b005b34801561006f57600080fd5b506100786102c3565b6040516100859190610432565b60405180910390f35b6100966102e7565b005b3480156100a457600080fd5b506100ad6103e7565b6040516100ba9190610466565b60405180910390f35b6502ba7def300034101561010c576040517f08c379a000000000000000000000000000000000000000000000000000000000815260040161010390610504565b60405180910390fd5b3373ffffffffffffffffffffffffffffffffffffffff167f6df5ea33b10846902d112bfaf7a48f9178fc45d80ca7e02388556d0b5a13c579346040516101529190610570565b60405180910390a260008054906101000a900473ffffffffffffffffffffffffffffffffffffffff1673ffffffffffffffffffffffffffffffffffffffff166108fc349081150290604051600060405180830381858888f193505050501580156101c0573d6000803e3d6000fd5b50565b6502ba7def300034101561020c576040517f08c379a000000000000000000000000000000000000000000000000000000000815260040161020390610504565b60405180910390fd5b3373ffffffffffffffffffffffffffffffffffffffff167f6df5ea33b10846902d112bfaf7a48f9178fc45d80ca7e02388556d0b5a13c5793460405161025291906105ea565b60405180910390a260008054906101000a900473ffffffffffffffffffffffffffffffffffffffff1673ffffffffffffffffffffffffffffffffffffffff166108fc349081150290604051600060405180830381858888f193505050501580156102c0573d6000803e3d6000fd5b50565b60008054906101000a900473ffffffffffffffffffffffffffffffffffffffff1681565b6502ba7def3000341015610330576040517f08c379a000000000000000000000000000000000000000000000000000000000815260040161032790610504565b60405180910390fd5b3373ffffffffffffffffffffffffffffffffffffffff167f6df5ea33b10846902d112bfaf7a48f9178fc45d80ca7e02388556d0b5a13c579346040516103769190610664565b60405180910390a260008054906101000a900473ffffffffffffffffffffffffffffffffffffffff1673ffffffffffffffffffffffffffffffffffffffff166108fc349081150290604051600060405180830381858888f193505050501580156103e4573d6000803e3d6000fd5b50565b6502ba7def300081565b600073ffffffffffffffffffffffffffffffffffffffff82169050919050565b600061041c826103f1565b9050919050565b61042c81610411565b82525050565b60006020820190506104476000830184610423565b92915050565b6000819050919050565b6104608161044d565b82525050565b600060208201905061047b6000830184610457565b92915050565b600082825260208201905092915050565b7f496e73756666696369656e74206665653a206d757374207061792024302e303160008201527f206571756976616c656e7420696e204554480000000000000000000000000000602082015250565b60006104ee603283610481565b91506104f982610492565b604082019050919050565b6000602082019050818103600083015261051d816104e1565b9050919050565b7f434f4d504c4554455f4c4556454c000000000000000000000000000000000000600082015250565b600061055a600e83610481565b915061056582610524565b602082019050919050565b600060408201905081810360008301526105898161054d565b90506105986020830184610457565b92915050565b7f52455345545f4c4556454c000000000000000000000000000000000000000000600082015250565b60006105d4600b83610481565b91506105df8261059e565b602082019050919050565b60006040820190508181036000830152610603816105c7565b90506106126020830184610457565b92915050565b7f504c41595f4c4556454c00000000000000000000000000000000000000000000600082015250565b600061064e600a83610481565b915061065982610618565b602082019050919050565b6000604082019050818103600083015261067d81610641565b905061068c6020830184610457565b9291505056fea2646970667358221220a048202974be5328209559a60f44f751b2b5761564716d8e95ba7c615acc9d3064736f6c634300081c0033",
  "linkReferences": {},
  "deployedLinkReferences": {}
}